{
  "_format": "hh-sol-artifact-1",
  "contractName": "CantoChads",
  "sourceName": "contracts/CantoChads.sol",
  "abi": [
    {
      "inputs": [
        {
          "internalType": "string",
          "name": "name",
          "type": "string"
        },
        {
          "internalType": "string",
          "name": "symbol",
          "type": "string"
        },
        {
          "internalType": "string",
          "name": "_initBaseURI",
          "type": "string"
        },
        {
          "internalType": "address payable",
          "name": "_payoutAddress",
          "type": "address"
        }
      ],
      "stateMutability": "nonpayable",
      "type": "constructor"
    },
    {
      "anonymous": false,
      "inputs": [
        {
          "indexed": true,
          "internalType": "address",
          "name": "owner",
          "type": "address"
        },
        {
          "indexed": true,
          "internalType": "address",
          "name": "approved",
          "type": "address"
        },
        {
          "indexed": true,
          "internalType": "uint256",
          "name": "tokenId",
          "type": "uint256"
        }
      ],
      "name": "Approval",
      "type": "event"
    },
    {
      "anonymous": false,
      "inputs": [
        {
          "indexed": true,
          "internalType": "address",
          "name": "owner",
          "type": "address"
        },
        {
          "indexed": true,
          "internalType": "address",
          "name": "operator",
          "type": "address"
        },
        {
          "indexed": false,
          "internalType": "bool",
          "name": "approved",
          "type": "bool"
        }
      ],
      "name": "ApprovalForAll",
      "type": "event"
    },
    {
      "anonymous": false,
      "inputs": [
        {
          "indexed": false,
          "internalType": "uint256",
          "name": "_tokenId",
          "type": "uint256"
        }
      ],
      "name": "Mint",
      "type": "event"
    },
    {
      "anonymous": false,
      "inputs": [
        {
          "indexed": true,
          "internalType": "address",
          "name": "previousOwner",
          "type": "address"
        },
        {
          "indexed": true,
          "internalType": "address",
          "name": "newOwner",
          "type": "address"
        }
      ],
      "name": "OwnershipTransferred",
      "type": "event"
    },
    {
      "anonymous": false,
      "inputs": [
        {
          "indexed": true,
          "internalType": "address",
          "name": "from",
          "type": "address"
        },
        {
          "indexed": true,
          "internalType": "address",
          "name": "to",
          "type": "address"
        },
        {
          "indexed": true,
          "internalType": "uint256",
          "name": "tokenId",
          "type": "uint256"
        }
      ],
      "name": "Transfer",
      "type": "event"
    },
    {
      "inputs": [],
      "name": "WALLET_LIMIT",
      "outputs": [
        {
          "internalType": "uint8",
          "name": "",
          "type": "uint8"
        }
      ],
      "stateMutability": "view",
      "type": "function"
    },
    {
      "inputs": [],
      "name": "_maxChads",
      "outputs": [
        {
          "internalType": "uint16",
          "name": "",
          "type": "uint16"
        }
      ],
      "stateMutability": "view",
      "type": "function"
    },
    {
      "inputs": [
        {
          "internalType": "address",
          "name": "to",
          "type": "address"
        },
        {
          "internalType": "uint256",
          "name": "tokenId",
          "type": "uint256"
        }
      ],
      "name": "approve",
      "outputs": [],
      "stateMutability": "nonpayable",
      "type": "function"
    },
    {
      "inputs": [
        {
          "internalType": "address",
          "name": "owner",
          "type": "address"
        }
      ],
      "name": "balanceOf",
      "outputs": [
        {
          "internalType": "uint256",
          "name": "",
          "type": "uint256"
        }
      ],
      "stateMutability": "view",
      "type": "function"
    },
    {
      "inputs": [],
      "name": "chadPrice",
      "outputs": [
        {
          "internalType": "uint256",
          "name": "",
          "type": "uint256"
        }
      ],
      "stateMutability": "view",
      "type": "function"
    },
    {
      "inputs": [],
      "name": "flipSaleState",
      "outputs": [],
      "stateMutability": "nonpayable",
      "type": "function"
    },
    {
      "inputs": [
        {
          "internalType": "uint256",
          "name": "tokenId",
          "type": "uint256"
        }
      ],
      "name": "getApproved",
      "outputs": [
        {
          "internalType": "address",
          "name": "",
          "type": "address"
        }
      ],
      "stateMutability": "view",
      "type": "function"
    },
    {
      "inputs": [
        {
          "internalType": "address",
          "name": "owner",
          "type": "address"
        },
        {
          "internalType": "address",
          "name": "operator",
          "type": "address"
        }
      ],
      "name": "isApprovedForAll",
      "outputs": [
        {
          "internalType": "bool",
          "name": "",
          "type": "bool"
        }
      ],
      "stateMutability": "view",
      "type": "function"
    },
    {
      "inputs": [],
      "name": "maxChads",
      "outputs": [
        {
          "internalType": "uint16",
          "name": "",
          "type": "uint16"
        }
      ],
      "stateMutability": "view",
      "type": "function"
    },
    {
      "inputs": [
        {
          "internalType": "uint8",
          "name": "numberOfTokens",
          "type": "uint8"
        }
      ],
      "name": "mintChad",
      "outputs": [],
      "stateMutability": "payable",
      "type": "function"
    },
    {
      "inputs": [],
      "name": "name",
      "outputs": [
        {
          "internalType": "string",
          "name": "",
          "type": "string"
        }
      ],
      "stateMutability": "view",
      "type": "function"
    },
    {
      "inputs": [],
      "name": "owner",
      "outputs": [
        {
          "internalType": "address",
          "name": "",
          "type": "address"
        }
      ],
      "stateMutability": "view",
      "type": "function"
    },
    {
      "inputs": [
        {
          "internalType": "uint256",
          "name": "tokenId",
          "type": "uint256"
        }
      ],
      "name": "ownerOf",
      "outputs": [
        {
          "internalType": "address",
          "name": "",
          "type": "address"
        }
      ],
      "stateMutability": "view",
      "type": "function"
    },
    {
      "inputs": [],
      "name": "payoutAddress",
      "outputs": [
        {
          "internalType": "address payable",
          "name": "",
          "type": "address"
        }
      ],
      "stateMutability": "view",
      "type": "function"
    },
    {
      "inputs": [],
      "name": "renounceOwnership",
      "outputs": [],
      "stateMutability": "nonpayable",
      "type": "function"
    },
    {
      "inputs": [],
      "name": "reserveChads",
      "outputs": [],
      "stateMutability": "nonpayable",
      "type": "function"
    },
    {
      "inputs": [
        {
          "internalType": "address",
          "name": "from",
          "type": "address"
        },
        {
          "internalType": "address",
          "name": "to",
          "type": "address"
        },
        {
          "internalType": "uint256",
          "name": "tokenId",
          "type": "uint256"
        }
      ],
      "name": "safeTransferFrom",
      "outputs": [],
      "stateMutability": "nonpayable",
      "type": "function"
    },
    {
      "inputs": [
        {
          "internalType": "address",
          "name": "from",
          "type": "address"
        },
        {
          "internalType": "address",
          "name": "to",
          "type": "address"
        },
        {
          "internalType": "uint256",
          "name": "tokenId",
          "type": "uint256"
        },
        {
          "internalType": "bytes",
          "name": "data",
          "type": "bytes"
        }
      ],
      "name": "safeTransferFrom",
      "outputs": [],
      "stateMutability": "nonpayable",
      "type": "function"
    },
    {
      "inputs": [],
      "name": "saleIsActive",
      "outputs": [
        {
          "internalType": "bool",
          "name": "",
          "type": "bool"
        }
      ],
      "stateMutability": "view",
      "type": "function"
    },
    {
      "inputs": [
        {
          "internalType": "address",
          "name": "operator",
          "type": "address"
        },
        {
          "internalType": "bool",
          "name": "approved",
          "type": "bool"
        }
      ],
      "name": "setApprovalForAll",
      "outputs": [],
      "stateMutability": "nonpayable",
      "type": "function"
    },
    {
      "inputs": [
        {
          "internalType": "string",
          "name": "baseURI",
          "type": "string"
        }
      ],
      "name": "setBaseURI",
      "outputs": [],
      "stateMutability": "nonpayable",
      "type": "function"
    },
    {
      "inputs": [
        {
          "internalType": "bytes4",
          "name": "interfaceId",
          "type": "bytes4"
        }
      ],
      "name": "supportsInterface",
      "outputs": [
        {
          "internalType": "bool",
          "name": "",
          "type": "bool"
        }
      ],
      "stateMutability": "view",
      "type": "function"
    },
    {
      "inputs": [],
      "name": "symbol",
      "outputs": [
        {
          "internalType": "string",
          "name": "",
          "type": "string"
        }
      ],
      "stateMutability": "view",
      "type": "function"
    },
    {
      "inputs": [
        {
          "internalType": "uint256",
          "name": "index",
          "type": "uint256"
        }
      ],
      "name": "tokenByIndex",
      "outputs": [
        {
          "internalType": "uint256",
          "name": "",
          "type": "uint256"
        }
      ],
      "stateMutability": "view",
      "type": "function"
    },
    {
      "inputs": [
        {
          "internalType": "address",
          "name": "owner",
          "type": "address"
        },
        {
          "internalType": "uint256",
          "name": "index",
          "type": "uint256"
        }
      ],
      "name": "tokenOfOwnerByIndex",
      "outputs": [
        {
          "internalType": "uint256",
          "name": "",
          "type": "uint256"
        }
      ],
      "stateMutability": "view",
      "type": "function"
    },
    {
      "inputs": [
        {
          "internalType": "uint256",
          "name": "tokenId",
          "type": "uint256"
        }
      ],
      "name": "tokenURI",
      "outputs": [
        {
          "internalType": "string",
          "name": "",
          "type": "string"
        }
      ],
      "stateMutability": "view",
      "type": "function"
    },
    {
      "inputs": [],
      "name": "totalSupply",
      "outputs": [
        {
          "internalType": "uint256",
          "name": "",
          "type": "uint256"
        }
      ],
      "stateMutability": "view",
      "type": "function"
    },
    {
      "inputs": [
        {
          "internalType": "address",
          "name": "from",
          "type": "address"
        },
        {
          "internalType": "address",
          "name": "to",
          "type": "address"
        },
        {
          "internalType": "uint256",
          "name": "tokenId",
          "type": "uint256"
        }
      ],
      "name": "transferFrom",
      "outputs": [],
      "stateMutability": "nonpayable",
      "type": "function"
    },
    {
      "inputs": [
        {
          "internalType": "address",
          "name": "newOwner",
          "type": "address"
        }
      ],
      "name": "transferOwnership",
      "outputs": [],
      "stateMutability": "nonpayable",
      "type": "function"
    },
    {
      "inputs": [],
      "name": "withdraw",
      "outputs": [],
      "stateMutability": "nonpayable",
      "type": "function"
    }
  ],
  "bytecode": "0x6080604052600a805460ff60a01b191690553480156200001e57600080fd5b50604051620024f4380380620024f4833981016040819052620000419162000277565b8351849084906200005a9060009060208501906200011e565b508051620000709060019060208401906200011e565b5050506200008d62000087620000c860201b60201c565b620000cc565b600b80546001600160a01b0319166001600160a01b0383161790558151620000bd90600c9060208501906200011e565b505050505062000378565b3390565b600a80546001600160a01b038381166001600160a01b0319831681179093556040519116919082907f8be0079c531659141344cd1fd0a4f28419497f9722a3daafe3b4186f6b6457e090600090a35050565b8280546200012c9062000325565b90600052602060002090601f0160209004810192826200015057600085556200019b565b82601f106200016b57805160ff19168380011785556200019b565b828001600101855582156200019b579182015b828111156200019b5782518255916020019190600101906200017e565b50620001a9929150620001ad565b5090565b5b80821115620001a95760008155600101620001ae565b600082601f830112620001d5578081fd5b81516001600160401b0380821115620001f257620001f262000362565b604051601f8301601f19908116603f011681019082821181831017156200021d576200021d62000362565b8160405283815260209250868385880101111562000239578485fd5b8491505b838210156200025c57858201830151818301840152908201906200023d565b838211156200026d57848385830101525b9695505050505050565b600080600080608085870312156200028d578384fd5b84516001600160401b0380821115620002a4578586fd5b620002b288838901620001c4565b95506020870151915080821115620002c8578485fd5b620002d688838901620001c4565b94506040870151915080821115620002ec578384fd5b50620002fb87828801620001c4565b606087015190935090506001600160a01b03811681146200031a578182fd5b939692955090935050565b600181811c908216806200033a57607f821691505b602082108114156200035c57634e487b7160e01b600052602260045260246000fd5b50919050565b634e487b7160e01b600052604160045260246000fd5b61216c80620003886000396000f3fe6080604052600436106101cd5760003560e01c806370a08231116100f7578063b6aa3c9e11610095578063e74ee81011610064578063e74ee81014610501578063e985e9c51461051d578063eb8d244414610566578063f2fde38b1461058757600080fd5b8063b6aa3c9e14610483578063b88d4fde146104ac578063c2ac22b0146104cc578063c87b56dd146104e157600080fd5b8063801b5951116100d1578063801b59511461041b5780638da5cb5b1461043057806395d89b411461044e578063a22cb4651461046357600080fd5b806370a08231146103d3578063715018a6146103f3578063750d6e621461040857600080fd5b806334918dfd1161016f5780634f6ccce71161013e5780634f6ccce71461035357806355f804b3146103735780635b8d02d7146103935780636352211e146103b357600080fd5b806334918dfd146102e2578063351ed951146102f75780633ccfd60b1461031e57806342842e0e1461033357600080fd5b8063095ea7b3116101ab578063095ea7b31461026157806318160ddd1461028357806323b872dd146102a25780632f745c59146102c257600080fd5b806301ffc9a7146101d257806306fdde0314610207578063081812fc14610229575b600080fd5b3480156101de57600080fd5b506101f26101ed366004611db9565b6105a7565b60405190151581526020015b60405180910390f35b34801561021357600080fd5b5061021c6105d2565b6040516101fe9190611f47565b34801561023557600080fd5b50610249610244366004611e5e565b610664565b6040516001600160a01b0390911681526020016101fe565b34801561026d57600080fd5b5061028161027c366004611d90565b61068b565b005b34801561028f57600080fd5b506008545b6040519081526020016101fe565b3480156102ae57600080fd5b506102816102bd366004611c46565b6107a6565b3480156102ce57600080fd5b506102946102dd366004611d90565b6107d7565b3480156102ee57600080fd5b5061028161086d565b34801561030357600080fd5b5061030c600a81565b60405160ff90911681526020016101fe565b34801561032a57600080fd5b50610281610896565b34801561033f57600080fd5b5061028161034e366004611c46565b6108d1565b34801561035f57600080fd5b5061029461036e366004611e5e565b6108ec565b34801561037f57600080fd5b5061028161038e366004611df1565b61098d565b34801561039f57600080fd5b50600b54610249906001600160a01b031681565b3480156103bf57600080fd5b506102496103ce366004611e5e565b6109a1565b3480156103df57600080fd5b506102946103ee366004611bfa565b610a01565b3480156103ff57600080fd5b50610281610a87565b610281610416366004611e8e565b610a9b565b34801561042757600080fd5b50610281610cfa565b34801561043c57600080fd5b50600a546001600160a01b0316610249565b34801561045a57600080fd5b5061021c610d51565b34801561046f57600080fd5b5061028161047e366004611d56565b610d60565b34801561048f57600080fd5b506104996108ae81565b60405161ffff90911681526020016101fe565b3480156104b857600080fd5b506102816104c7366004611c81565b610d6b565b3480156104d857600080fd5b506108ae610499565b3480156104ed57600080fd5b5061021c6104fc366004611e5e565b610da3565b34801561050d57600080fd5b506806046f37e5945c0000610294565b34801561052957600080fd5b506101f2610538366004611c14565b6001600160a01b03918216600090815260056020908152604080832093909416825291909152205460ff1690565b34801561057257600080fd5b50600a546101f290600160a01b900460ff1681565b34801561059357600080fd5b506102816105a2366004611bfa565b610e0a565b60006001600160e01b0319821663780e9d6360e01b14806105cc57506105cc82610e83565b92915050565b6060600080546105e190612099565b80601f016020809104026020016040519081016040528092919081815260200182805461060d90612099565b801561065a5780601f1061062f5761010080835404028352916020019161065a565b820191906000526020600020905b81548152906001019060200180831161063d57829003601f168201915b5050505050905090565b600061066f82610ed3565b506000908152600460205260409020546001600160a01b031690565b6000610696826109a1565b9050806001600160a01b0316836001600160a01b031614156107095760405162461bcd60e51b815260206004820152602160248201527f4552433732313a20617070726f76616c20746f2063757272656e74206f776e656044820152603960f91b60648201526084015b60405180910390fd5b336001600160a01b038216148061072557506107258133610538565b6107975760405162461bcd60e51b815260206004820152603d60248201527f4552433732313a20617070726f76652063616c6c6572206973206e6f7420746f60448201527f6b656e206f776e6572206f7220617070726f76656420666f7220616c6c0000006064820152608401610700565b6107a18383610f32565b505050565b6107b03382610fa0565b6107cc5760405162461bcd60e51b815260040161070090611f5a565b6107a183838361101f565b60006107e283610a01565b82106108445760405162461bcd60e51b815260206004820152602b60248201527f455243373231456e756d657261626c653a206f776e657220696e646578206f7560448201526a74206f6620626f756e647360a81b6064820152608401610700565b506001600160a01b03919091166000908152600660209081526040808320938352929052205490565b610875611190565b600a805460ff60a01b198116600160a01b9182900460ff1615909102179055565b61089e611190565b6040514790339082156108fc029083906000818181858888f193505050501580156108cd573d6000803e3d6000fd5b5050565b6107a183838360405180602001604052806000815250610d6b565b60006108f760085490565b821061095a5760405162461bcd60e51b815260206004820152602c60248201527f455243373231456e756d657261626c653a20676c6f62616c20696e646578206f60448201526b7574206f6620626f756e647360a01b6064820152608401610700565b6008828154811061097b57634e487b7160e01b600052603260045260246000fd5b90600052602060002001549050919050565b610995611190565b6107a1600c8383611b45565b6000818152600260205260408120546001600160a01b0316806105cc5760405162461bcd60e51b8152602060048201526018602482015277115490cdcc8c4e881a5b9d985b1a59081d1bdad95b88125160421b6044820152606401610700565b60006001600160a01b038216610a6b5760405162461bcd60e51b815260206004820152602960248201527f4552433732313a2061646472657373207a65726f206973206e6f7420612076616044820152683634b21037bbb732b960b91b6064820152608401610700565b506001600160a01b031660009081526003602052604090205490565b610a8f611190565b610a9960006111ea565b565b600a54600160a01b900460ff16610af45760405162461bcd60e51b815260206004820152601b60248201527f53616c65206d7573742062652061637469766520746f206d696e7400000000006044820152606401610700565b6108ae60ff8216610b0460085490565b610b0e919061203e565b1115610b515760405162461bcd60e51b8152602060048201526012602482015271139bc81b5bdc994810da18591cc81b19599d60721b6044820152606401610700565b600a60ff82161115610ba55760405162461bcd60e51b815260206004820152601a60248201527f4d6178206f66203130204368616473207065722077616c6c65740000000000006044820152606401610700565b60005b8160ff168160ff1610156108cd576040516370a0823160e01b815233600482015260009030906370a082319060240160206040518083038186803b158015610bef57600080fd5b505afa158015610c03573d6000803e3d6000fd5b505050506040513d601f19601f82011682018060405250810190610c279190611e76565b9050600a8110610c795760405162461bcd60e51b815260206004820152601a60248201527f4d6178206f66203130204368616473207065722077616c6c65740000000000006044820152606401610700565b6108ae610c8560085490565b1015610ce7576000610c9660085490565b90506000610ca582600161203e565b9050610cb1338261123c565b6040518181527f07883703ed0e86588a40d76551c92f8a4b329e3bf19765e0e6749473c1a846659060200160405180910390a150505b5080610cf2816120d4565b915050610ba8565b610d02611190565b6000610d0d60085490565b610d1890600161203e565b905060005b60ba8160ff1610156108cd57610d3f33610d3a60ff84168561203e565b61123c565b80610d49816120d4565b915050610d1d565b6060600180546105e190612099565b6108cd338383611256565b610d753383610fa0565b610d915760405162461bcd60e51b815260040161070090611f5a565b610d9d84848484611325565b50505050565b6060610dae82610ed3565b6000610db8611358565b90506000815111610dd85760405180602001604052806000815250610e03565b80610de284611367565b604051602001610df3929190611edb565b6040516020818303038152906040525b9392505050565b610e12611190565b6001600160a01b038116610e775760405162461bcd60e51b815260206004820152602660248201527f4f776e61626c653a206e6577206f776e657220697320746865207a65726f206160448201526564647265737360d01b6064820152608401610700565b610e80816111ea565b50565b60006001600160e01b031982166380ac58cd60e01b1480610eb457506001600160e01b03198216635b5e139f60e01b145b806105cc57506301ffc9a760e01b6001600160e01b03198316146105cc565b6000818152600260205260409020546001600160a01b0316610e805760405162461bcd60e51b8152602060048201526018602482015277115490cdcc8c4e881a5b9d985b1a59081d1bdad95b88125160421b6044820152606401610700565b600081815260046020526040902080546001600160a01b0319166001600160a01b0384169081179091558190610f67826109a1565b6001600160a01b03167f8c5be1e5ebec7d5bd14f71427d1e84f3dd0314c0f7b2291e5b200ac8c7c3b92560405160405180910390a45050565b600080610fac836109a1565b9050806001600160a01b0316846001600160a01b03161480610ff357506001600160a01b0380821660009081526005602090815260408083209388168352929052205460ff165b806110175750836001600160a01b031661100c84610664565b6001600160a01b0316145b949350505050565b826001600160a01b0316611032826109a1565b6001600160a01b0316146110585760405162461bcd60e51b815260040161070090611ff9565b6001600160a01b0382166110ba5760405162461bcd60e51b8152602060048201526024808201527f4552433732313a207472616e7366657220746f20746865207a65726f206164646044820152637265737360e01b6064820152608401610700565b6110c78383836001611412565b826001600160a01b03166110da826109a1565b6001600160a01b0316146111005760405162461bcd60e51b815260040161070090611ff9565b600081815260046020908152604080832080546001600160a01b03199081169091556001600160a01b0387811680865260038552838620805460001901905590871680865283862080546001019055868652600290945282852080549092168417909155905184937fddf252ad1be2c89b69c2b068fc378daa952ba7f163c4a11628f55a4df523b3ef91a4505050565b600a546001600160a01b03163314610a995760405162461bcd60e51b815260206004820181905260248201527f4f776e61626c653a2063616c6c6572206973206e6f7420746865206f776e65726044820152606401610700565b600a80546001600160a01b038381166001600160a01b0319831681179093556040519116919082907f8be0079c531659141344cd1fd0a4f28419497f9722a3daafe3b4186f6b6457e090600090a35050565b6108cd828260405180602001604052806000815250611552565b816001600160a01b0316836001600160a01b031614156112b85760405162461bcd60e51b815260206004820152601960248201527f4552433732313a20617070726f766520746f2063616c6c6572000000000000006044820152606401610700565b6001600160a01b03838116600081815260056020908152604080832094871680845294825291829020805460ff191686151590811790915591519182527f17307eab39ab6107e8899845ad3d59bd9653f200f220920489ca2b5937696c31910160405180910390a3505050565b61133084848461101f565b61133c84848484611585565b610d9d5760405162461bcd60e51b815260040161070090611fa7565b6060600c80546105e190612099565b6060600061137483611692565b600101905060008167ffffffffffffffff8111156113a257634e487b7160e01b600052604160045260246000fd5b6040519080825280601f01601f1916602001820160405280156113cc576020820181803683370190505b5090508181016020015b600019016f181899199a1a9b1b9c1cb0b131b232b360811b600a86061a8153600a85049450846114055761140a565b6113d6565b509392505050565b61141e8484848461176a565b600181111561148d5760405162461bcd60e51b815260206004820152603560248201527f455243373231456e756d657261626c653a20636f6e7365637574697665207472604482015274185b9cd9995c9cc81b9bdd081cdd5c1c1bdc9d1959605a1b6064820152608401610700565b816001600160a01b0385166114e9576114e481600880546000838152600960205260408120829055600182018355919091527ff3f7a9fe364faab93b216da50a3214154f22a0a2b415b23a84c8169e8b636ee30155565b61150c565b836001600160a01b0316856001600160a01b03161461150c5761150c85826117f2565b6001600160a01b038416611528576115238161188f565b61154b565b846001600160a01b0316846001600160a01b03161461154b5761154b8482611968565b5050505050565b61155c83836119ac565b6115696000848484611585565b6107a15760405162461bcd60e51b815260040161070090611fa7565b60006001600160a01b0384163b1561168757604051630a85bd0160e11b81526001600160a01b0385169063150b7a02906115c9903390899088908890600401611f0a565b602060405180830381600087803b1580156115e357600080fd5b505af1925050508015611613575060408051601f3d908101601f1916820190925261161091810190611dd5565b60015b61166d573d808015611641576040519150601f19603f3d011682016040523d82523d6000602084013e611646565b606091505b5080516116655760405162461bcd60e51b815260040161070090611fa7565b805181602001fd5b6001600160e01b031916630a85bd0160e11b149050611017565b506001949350505050565b60008072184f03e93ff9f4daa797ed6e38ed64bf6a1f0160401b83106116d15772184f03e93ff9f4daa797ed6e38ed64bf6a1f0160401b830492506040015b6d04ee2d6d415b85acef810000000083106116fd576d04ee2d6d415b85acef8100000000830492506020015b662386f26fc10000831061171b57662386f26fc10000830492506010015b6305f5e1008310611733576305f5e100830492506008015b612710831061174757612710830492506004015b60648310611759576064830492506002015b600a83106105cc5760010192915050565b6001811115610d9d576001600160a01b038416156117b0576001600160a01b038416600090815260036020526040812080548392906117aa908490612056565b90915550505b6001600160a01b03831615610d9d576001600160a01b038316600090815260036020526040812080548392906117e790849061203e565b909155505050505050565b600060016117ff84610a01565b6118099190612056565b60008381526007602052604090205490915080821461185c576001600160a01b03841660009081526006602090815260408083208584528252808320548484528184208190558352600790915290208190555b5060009182526007602090815260408084208490556001600160a01b039094168352600681528383209183525290812055565b6008546000906118a190600190612056565b600083815260096020526040812054600880549394509092849081106118d757634e487b7160e01b600052603260045260246000fd5b90600052602060002001549050806008838154811061190657634e487b7160e01b600052603260045260246000fd5b600091825260208083209091019290925582815260099091526040808220849055858252812055600880548061194c57634e487b7160e01b600052603160045260246000fd5b6001900381819060005260206000200160009055905550505050565b600061197383610a01565b6001600160a01b039093166000908152600660209081526040808320868452825280832085905593825260079052919091209190915550565b6001600160a01b038216611a025760405162461bcd60e51b815260206004820181905260248201527f4552433732313a206d696e7420746f20746865207a65726f20616464726573736044820152606401610700565b6000818152600260205260409020546001600160a01b031615611a675760405162461bcd60e51b815260206004820152601c60248201527f4552433732313a20746f6b656e20616c7265616479206d696e746564000000006044820152606401610700565b611a75600083836001611412565b6000818152600260205260409020546001600160a01b031615611ada5760405162461bcd60e51b815260206004820152601c60248201527f4552433732313a20746f6b656e20616c7265616479206d696e746564000000006044820152606401610700565b6001600160a01b038216600081815260036020908152604080832080546001019055848352600290915280822080546001600160a01b0319168417905551839291907fddf252ad1be2c89b69c2b068fc378daa952ba7f163c4a11628f55a4df523b3ef908290a45050565b828054611b5190612099565b90600052602060002090601f016020900481019282611b735760008555611bb9565b82601f10611b8c5782800160ff19823516178555611bb9565b82800160010185558215611bb9579182015b82811115611bb9578235825591602001919060010190611b9e565b50611bc5929150611bc9565b5090565b5b80821115611bc55760008155600101611bca565b80356001600160a01b0381168114611bf557600080fd5b919050565b600060208284031215611c0b578081fd5b610e0382611bde565b60008060408385031215611c26578081fd5b611c2f83611bde565b9150611c3d60208401611bde565b90509250929050565b600080600060608486031215611c5a578081fd5b611c6384611bde565b9250611c7160208501611bde565b9150604084013590509250925092565b60008060008060808587031215611c96578081fd5b611c9f85611bde565b9350611cad60208601611bde565b925060408501359150606085013567ffffffffffffffff80821115611cd0578283fd5b818701915087601f830112611ce3578283fd5b813581811115611cf557611cf561210a565b604051601f8201601f19908116603f01168101908382118183101715611d1d57611d1d61210a565b816040528281528a6020848701011115611d35578586fd5b82602086016020830137918201602001949094529598949750929550505050565b60008060408385031215611d68578182fd5b611d7183611bde565b915060208301358015158114611d85578182fd5b809150509250929050565b60008060408385031215611da2578182fd5b611dab83611bde565b946020939093013593505050565b600060208284031215611dca578081fd5b8135610e0381612120565b600060208284031215611de6578081fd5b8151610e0381612120565b60008060208385031215611e03578182fd5b823567ffffffffffffffff80821115611e1a578384fd5b818501915085601f830112611e2d578384fd5b813581811115611e3b578485fd5b866020828501011115611e4c578485fd5b60209290920196919550909350505050565b600060208284031215611e6f578081fd5b5035919050565b600060208284031215611e87578081fd5b5051919050565b600060208284031215611e9f578081fd5b813560ff81168114610e03578182fd5b60008151808452611ec781602086016020860161206d565b601f01601f19169290920160200192915050565b60008351611eed81846020880161206d565b835190830190611f0181836020880161206d565b01949350505050565b6001600160a01b0385811682528416602082015260408101839052608060608201819052600090611f3d90830184611eaf565b9695505050505050565b602081526000610e036020830184611eaf565b6020808252602d908201527f4552433732313a2063616c6c6572206973206e6f7420746f6b656e206f776e6560408201526c1c881bdc88185c1c1c9bdd9959609a1b606082015260800190565b60208082526032908201527f4552433732313a207472616e7366657220746f206e6f6e20455243373231526560408201527131b2b4bb32b91034b6b83632b6b2b73a32b960711b606082015260800190565b60208082526025908201527f4552433732313a207472616e736665722066726f6d20696e636f72726563742060408201526437bbb732b960d91b606082015260800190565b60008219821115612051576120516120f4565b500190565b600082821015612068576120686120f4565b500390565b60005b83811015612088578181015183820152602001612070565b83811115610d9d5750506000910152565b600181811c908216806120ad57607f821691505b602082108114156120ce57634e487b7160e01b600052602260045260246000fd5b50919050565b600060ff821660ff8114156120eb576120eb6120f4565b60010192915050565b634e487b7160e01b600052601160045260246000fd5b634e487b7160e01b600052604160045260246000fd5b6001600160e01b031981168114610e8057600080fdfea2646970667358221220f4cdbd73ba50f65ec4bf42257c662e9f4e7ba08f29a0ad6a68a86942b473930064736f6c63430008040033",
  "linkReferences": {},
  "deployedLinkReferences": {}
}