{
  "_format": "hh-sol-artifact-1",
  "contractName": "cPoorsche",
  "sourceName": "contracts/Poorsche.sol",
  "abi": [
    {
      "inputs": [
        {
          "internalType": "string",
          "name": "name",
          "type": "string"
        },
        {
          "internalType": "string",
          "name": "symbol",
          "type": "string"
        },
        {
          "internalType": "string",
          "name": "_initBaseURI",
          "type": "string"
        },
        {
          "internalType": "address payable",
          "name": "_payoutAddress",
          "type": "address"
        }
      ],
      "stateMutability": "nonpayable",
      "type": "constructor"
    },
    {
      "anonymous": false,
      "inputs": [
        {
          "indexed": true,
          "internalType": "address",
          "name": "owner",
          "type": "address"
        },
        {
          "indexed": true,
          "internalType": "address",
          "name": "approved",
          "type": "address"
        },
        {
          "indexed": true,
          "internalType": "uint256",
          "name": "tokenId",
          "type": "uint256"
        }
      ],
      "name": "Approval",
      "type": "event"
    },
    {
      "anonymous": false,
      "inputs": [
        {
          "indexed": true,
          "internalType": "address",
          "name": "owner",
          "type": "address"
        },
        {
          "indexed": true,
          "internalType": "address",
          "name": "operator",
          "type": "address"
        },
        {
          "indexed": false,
          "internalType": "bool",
          "name": "approved",
          "type": "bool"
        }
      ],
      "name": "ApprovalForAll",
      "type": "event"
    },
    {
      "anonymous": false,
      "inputs": [
        {
          "indexed": false,
          "internalType": "uint256",
          "name": "_tokenId",
          "type": "uint256"
        }
      ],
      "name": "Mint",
      "type": "event"
    },
    {
      "anonymous": false,
      "inputs": [
        {
          "indexed": true,
          "internalType": "address",
          "name": "previousOwner",
          "type": "address"
        },
        {
          "indexed": true,
          "internalType": "address",
          "name": "newOwner",
          "type": "address"
        }
      ],
      "name": "OwnershipTransferred",
      "type": "event"
    },
    {
      "anonymous": false,
      "inputs": [
        {
          "indexed": true,
          "internalType": "address",
          "name": "from",
          "type": "address"
        },
        {
          "indexed": true,
          "internalType": "address",
          "name": "to",
          "type": "address"
        },
        {
          "indexed": true,
          "internalType": "uint256",
          "name": "tokenId",
          "type": "uint256"
        }
      ],
      "name": "Transfer",
      "type": "event"
    },
    {
      "inputs": [],
      "name": "WALLET_LIMIT",
      "outputs": [
        {
          "internalType": "uint8",
          "name": "",
          "type": "uint8"
        }
      ],
      "stateMutability": "view",
      "type": "function"
    },
    {
      "inputs": [],
      "name": "_maxPoorsches",
      "outputs": [
        {
          "internalType": "uint16",
          "name": "",
          "type": "uint16"
        }
      ],
      "stateMutability": "view",
      "type": "function"
    },
    {
      "inputs": [
        {
          "internalType": "address",
          "name": "to",
          "type": "address"
        },
        {
          "internalType": "uint256",
          "name": "tokenId",
          "type": "uint256"
        }
      ],
      "name": "approve",
      "outputs": [],
      "stateMutability": "nonpayable",
      "type": "function"
    },
    {
      "inputs": [
        {
          "internalType": "address",
          "name": "owner",
          "type": "address"
        }
      ],
      "name": "balanceOf",
      "outputs": [
        {
          "internalType": "uint256",
          "name": "",
          "type": "uint256"
        }
      ],
      "stateMutability": "view",
      "type": "function"
    },
    {
      "inputs": [],
      "name": "flipSaleState",
      "outputs": [],
      "stateMutability": "nonpayable",
      "type": "function"
    },
    {
      "inputs": [
        {
          "internalType": "uint256",
          "name": "tokenId",
          "type": "uint256"
        }
      ],
      "name": "getApproved",
      "outputs": [
        {
          "internalType": "address",
          "name": "",
          "type": "address"
        }
      ],
      "stateMutability": "view",
      "type": "function"
    },
    {
      "inputs": [
        {
          "internalType": "address",
          "name": "owner",
          "type": "address"
        },
        {
          "internalType": "address",
          "name": "operator",
          "type": "address"
        }
      ],
      "name": "isApprovedForAll",
      "outputs": [
        {
          "internalType": "bool",
          "name": "",
          "type": "bool"
        }
      ],
      "stateMutability": "view",
      "type": "function"
    },
    {
      "inputs": [],
      "name": "maxPoorsches",
      "outputs": [
        {
          "internalType": "uint16",
          "name": "",
          "type": "uint16"
        }
      ],
      "stateMutability": "view",
      "type": "function"
    },
    {
      "inputs": [
        {
          "internalType": "uint8",
          "name": "numberOfTokens",
          "type": "uint8"
        }
      ],
      "name": "mintPoorsche",
      "outputs": [],
      "stateMutability": "payable",
      "type": "function"
    },
    {
      "inputs": [],
      "name": "name",
      "outputs": [
        {
          "internalType": "string",
          "name": "",
          "type": "string"
        }
      ],
      "stateMutability": "view",
      "type": "function"
    },
    {
      "inputs": [],
      "name": "owner",
      "outputs": [
        {
          "internalType": "address",
          "name": "",
          "type": "address"
        }
      ],
      "stateMutability": "view",
      "type": "function"
    },
    {
      "inputs": [
        {
          "internalType": "uint256",
          "name": "tokenId",
          "type": "uint256"
        }
      ],
      "name": "ownerOf",
      "outputs": [
        {
          "internalType": "address",
          "name": "",
          "type": "address"
        }
      ],
      "stateMutability": "view",
      "type": "function"
    },
    {
      "inputs": [],
      "name": "payoutAddress",
      "outputs": [
        {
          "internalType": "address payable",
          "name": "",
          "type": "address"
        }
      ],
      "stateMutability": "view",
      "type": "function"
    },
    {
      "inputs": [],
      "name": "poorschePrice",
      "outputs": [
        {
          "internalType": "uint256",
          "name": "",
          "type": "uint256"
        }
      ],
      "stateMutability": "view",
      "type": "function"
    },
    {
      "inputs": [],
      "name": "renounceOwnership",
      "outputs": [],
      "stateMutability": "nonpayable",
      "type": "function"
    },
    {
      "inputs": [],
      "name": "reservePoorsches",
      "outputs": [],
      "stateMutability": "nonpayable",
      "type": "function"
    },
    {
      "inputs": [
        {
          "internalType": "address",
          "name": "from",
          "type": "address"
        },
        {
          "internalType": "address",
          "name": "to",
          "type": "address"
        },
        {
          "internalType": "uint256",
          "name": "tokenId",
          "type": "uint256"
        }
      ],
      "name": "safeTransferFrom",
      "outputs": [],
      "stateMutability": "nonpayable",
      "type": "function"
    },
    {
      "inputs": [
        {
          "internalType": "address",
          "name": "from",
          "type": "address"
        },
        {
          "internalType": "address",
          "name": "to",
          "type": "address"
        },
        {
          "internalType": "uint256",
          "name": "tokenId",
          "type": "uint256"
        },
        {
          "internalType": "bytes",
          "name": "data",
          "type": "bytes"
        }
      ],
      "name": "safeTransferFrom",
      "outputs": [],
      "stateMutability": "nonpayable",
      "type": "function"
    },
    {
      "inputs": [],
      "name": "saleIsActive",
      "outputs": [
        {
          "internalType": "bool",
          "name": "",
          "type": "bool"
        }
      ],
      "stateMutability": "view",
      "type": "function"
    },
    {
      "inputs": [
        {
          "internalType": "address",
          "name": "operator",
          "type": "address"
        },
        {
          "internalType": "bool",
          "name": "approved",
          "type": "bool"
        }
      ],
      "name": "setApprovalForAll",
      "outputs": [],
      "stateMutability": "nonpayable",
      "type": "function"
    },
    {
      "inputs": [
        {
          "internalType": "string",
          "name": "baseURI",
          "type": "string"
        }
      ],
      "name": "setBaseURI",
      "outputs": [],
      "stateMutability": "nonpayable",
      "type": "function"
    },
    {
      "inputs": [
        {
          "internalType": "bytes4",
          "name": "interfaceId",
          "type": "bytes4"
        }
      ],
      "name": "supportsInterface",
      "outputs": [
        {
          "internalType": "bool",
          "name": "",
          "type": "bool"
        }
      ],
      "stateMutability": "view",
      "type": "function"
    },
    {
      "inputs": [],
      "name": "symbol",
      "outputs": [
        {
          "internalType": "string",
          "name": "",
          "type": "string"
        }
      ],
      "stateMutability": "view",
      "type": "function"
    },
    {
      "inputs": [
        {
          "internalType": "uint256",
          "name": "index",
          "type": "uint256"
        }
      ],
      "name": "tokenByIndex",
      "outputs": [
        {
          "internalType": "uint256",
          "name": "",
          "type": "uint256"
        }
      ],
      "stateMutability": "view",
      "type": "function"
    },
    {
      "inputs": [
        {
          "internalType": "address",
          "name": "owner",
          "type": "address"
        },
        {
          "internalType": "uint256",
          "name": "index",
          "type": "uint256"
        }
      ],
      "name": "tokenOfOwnerByIndex",
      "outputs": [
        {
          "internalType": "uint256",
          "name": "",
          "type": "uint256"
        }
      ],
      "stateMutability": "view",
      "type": "function"
    },
    {
      "inputs": [
        {
          "internalType": "uint256",
          "name": "tokenId",
          "type": "uint256"
        }
      ],
      "name": "tokenURI",
      "outputs": [
        {
          "internalType": "string",
          "name": "",
          "type": "string"
        }
      ],
      "stateMutability": "view",
      "type": "function"
    },
    {
      "inputs": [],
      "name": "totalSupply",
      "outputs": [
        {
          "internalType": "uint256",
          "name": "",
          "type": "uint256"
        }
      ],
      "stateMutability": "view",
      "type": "function"
    },
    {
      "inputs": [
        {
          "internalType": "address",
          "name": "from",
          "type": "address"
        },
        {
          "internalType": "address",
          "name": "to",
          "type": "address"
        },
        {
          "internalType": "uint256",
          "name": "tokenId",
          "type": "uint256"
        }
      ],
      "name": "transferFrom",
      "outputs": [],
      "stateMutability": "nonpayable",
      "type": "function"
    },
    {
      "inputs": [
        {
          "internalType": "address",
          "name": "newOwner",
          "type": "address"
        }
      ],
      "name": "transferOwnership",
      "outputs": [],
      "stateMutability": "nonpayable",
      "type": "function"
    },
    {
      "inputs": [],
      "name": "withdraw",
      "outputs": [],
      "stateMutability": "nonpayable",
      "type": "function"
    }
  ],
  "bytecode": "0x6080604052600a805460ff60a01b191690553480156200001e57600080fd5b506040516200248838038062002488833981016040819052620000419162000277565b8351849084906200005a9060009060208501906200011e565b508051620000709060019060208401906200011e565b5050506200008d62000087620000c860201b60201c565b620000cc565b600b80546001600160a01b0319166001600160a01b0383161790558151620000bd90600c9060208501906200011e565b505050505062000378565b3390565b600a80546001600160a01b038381166001600160a01b0319831681179093556040519116919082907f8be0079c531659141344cd1fd0a4f28419497f9722a3daafe3b4186f6b6457e090600090a35050565b8280546200012c9062000325565b90600052602060002090601f0160209004810192826200015057600085556200019b565b82601f106200016b57805160ff19168380011785556200019b565b828001600101855582156200019b579182015b828111156200019b5782518255916020019190600101906200017e565b50620001a9929150620001ad565b5090565b5b80821115620001a95760008155600101620001ae565b600082601f830112620001d5578081fd5b81516001600160401b0380821115620001f257620001f262000362565b604051601f8301601f19908116603f011681019082821181831017156200021d576200021d62000362565b8160405283815260209250868385880101111562000239578485fd5b8491505b838210156200025c57858201830151818301840152908201906200023d565b838211156200026d57848385830101525b9695505050505050565b600080600080608085870312156200028d578384fd5b84516001600160401b0380821115620002a4578586fd5b620002b288838901620001c4565b95506020870151915080821115620002c8578485fd5b620002d688838901620001c4565b94506040870151915080821115620002ec578384fd5b50620002fb87828801620001c4565b606087015190935090506001600160a01b03811681146200031a578182fd5b939692955090935050565b600181811c908216806200033a57607f821691505b602082108114156200035c57634e487b7160e01b600052602260045260246000fd5b50919050565b634e487b7160e01b600052604160045260246000fd5b61210080620003886000396000f3fe6080604052600436106101cd5760003560e01c80636352211e116100f7578063a22cb46511610095578063e8d5d40311610064578063e8d5d403146104fb578063e985e9c514610511578063eb8d24441461055a578063f2fde38b1461057b57600080fd5b8063a22cb46514610487578063b3353128146104a7578063b88d4fde146104bb578063c87b56dd146104db57600080fd5b80638da5cb5b116100d15780638da5cb5b1461041d578063903e2ad31461043b57806395d89b411461044e57806399d29d121461046357600080fd5b80636352211e146103c857806370a08231146103e8578063715018a61461040857600080fd5b80632f745c591161016f57806342842e0e1161013e57806342842e0e146103485780634f6ccce71461036857806355f804b3146103885780635b8d02d7146103a857600080fd5b80632f745c59146102d757806334918dfd146102f7578063351ed9511461030c5780633ccfd60b1461033357600080fd5b8063081812fc116101ab578063081812fc14610240578063095ea7b31461027857806318160ddd1461029857806323b872dd146102b757600080fd5b806301ffc9a7146101d257806302a52c5f1461020757806306fdde031461021e575b600080fd5b3480156101de57600080fd5b506101f26101ed366004611d4d565b61059b565b60405190151581526020015b60405180910390f35b34801561021357600080fd5b5061021c6105c6565b005b34801561022a57600080fd5b50610233610621565b6040516101fe9190611edb565b34801561024c57600080fd5b5061026061025b366004611df2565b6106b3565b6040516001600160a01b0390911681526020016101fe565b34801561028457600080fd5b5061021c610293366004611d24565b6106da565b3480156102a457600080fd5b506008545b6040519081526020016101fe565b3480156102c357600080fd5b5061021c6102d2366004611bda565b6107f5565b3480156102e357600080fd5b506102a96102f2366004611d24565b610826565b34801561030357600080fd5b5061021c6108bc565b34801561031857600080fd5b50610321600681565b60405160ff90911681526020016101fe565b34801561033f57600080fd5b5061021c6108e5565b34801561035457600080fd5b5061021c610363366004611bda565b61091c565b34801561037457600080fd5b506102a9610383366004611df2565b610937565b34801561039457600080fd5b5061021c6103a3366004611d85565b6109d8565b3480156103b457600080fd5b50600b54610260906001600160a01b031681565b3480156103d457600080fd5b506102606103e3366004611df2565b6109ec565b3480156103f457600080fd5b506102a9610403366004611b8e565b610a4c565b34801561041457600080fd5b5061021c610ad2565b34801561042957600080fd5b50600a546001600160a01b0316610260565b61021c610449366004611e22565b610ae6565b34801561045a57600080fd5b50610233610ce5565b34801561046f57600080fd5b5061038f5b60405161ffff90911681526020016101fe565b34801561049357600080fd5b5061021c6104a2366004611cea565b610cf4565b3480156104b357600080fd5b5060006102a9565b3480156104c757600080fd5b5061021c6104d6366004611c15565b610cff565b3480156104e757600080fd5b506102336104f6366004611df2565b610d37565b34801561050757600080fd5b5061047461038f81565b34801561051d57600080fd5b506101f261052c366004611ba8565b6001600160a01b03918216600090815260056020908152604080832093909416825291909152205460ff1690565b34801561056657600080fd5b50600a546101f290600160a01b900460ff1681565b34801561058757600080fd5b5061021c610596366004611b8e565b610d9e565b60006001600160e01b0319821663780e9d6360e01b14806105c057506105c082610e17565b92915050565b6105ce610e67565b60006105d960085490565b6105e4906001611fd2565b905060005b600a8160ff16101561061d5761060b3361060660ff841685611fd2565b610ec1565b8061061581612068565b9150506105e9565b5050565b6060600080546106309061202d565b80601f016020809104026020016040519081016040528092919081815260200182805461065c9061202d565b80156106a95780601f1061067e576101008083540402835291602001916106a9565b820191906000526020600020905b81548152906001019060200180831161068c57829003601f168201915b5050505050905090565b60006106be82610edb565b506000908152600460205260409020546001600160a01b031690565b60006106e5826109ec565b9050806001600160a01b0316836001600160a01b031614156107585760405162461bcd60e51b815260206004820152602160248201527f4552433732313a20617070726f76616c20746f2063757272656e74206f776e656044820152603960f91b60648201526084015b60405180910390fd5b336001600160a01b03821614806107745750610774813361052c565b6107e65760405162461bcd60e51b815260206004820152603d60248201527f4552433732313a20617070726f76652063616c6c6572206973206e6f7420746f60448201527f6b656e206f776e6572206f7220617070726f76656420666f7220616c6c000000606482015260840161074f565b6107f08383610f3a565b505050565b6107ff3382610fa8565b61081b5760405162461bcd60e51b815260040161074f90611eee565b6107f0838383611027565b600061083183610a4c565b82106108935760405162461bcd60e51b815260206004820152602b60248201527f455243373231456e756d657261626c653a206f776e657220696e646578206f7560448201526a74206f6620626f756e647360a81b606482015260840161074f565b506001600160a01b03919091166000908152600660209081526040808320938352929052205490565b6108c4610e67565b600a805460ff60a01b198116600160a01b9182900460ff1615909102179055565b6108ed610e67565b6040514790339082156108fc029083906000818181858888f1935050505015801561061d573d6000803e3d6000fd5b6107f083838360405180602001604052806000815250610cff565b600061094260085490565b82106109a55760405162461bcd60e51b815260206004820152602c60248201527f455243373231456e756d657261626c653a20676c6f62616c20696e646578206f60448201526b7574206f6620626f756e647360a01b606482015260840161074f565b600882815481106109c657634e487b7160e01b600052603260045260246000fd5b90600052602060002001549050919050565b6109e0610e67565b6107f0600c8383611ad9565b6000818152600260205260408120546001600160a01b0316806105c05760405162461bcd60e51b8152602060048201526018602482015277115490cdcc8c4e881a5b9d985b1a59081d1bdad95b88125160421b604482015260640161074f565b60006001600160a01b038216610ab65760405162461bcd60e51b815260206004820152602960248201527f4552433732313a2061646472657373207a65726f206973206e6f7420612076616044820152683634b21037bbb732b960b91b606482015260840161074f565b506001600160a01b031660009081526003602052604090205490565b610ada610e67565b610ae46000611198565b565b600a54600160a01b900460ff16610b3f5760405162461bcd60e51b815260206004820152601b60248201527f53616c65206d7573742062652061637469766520746f206d696e740000000000604482015260640161074f565b61038f60ff8216610b4f60085490565b610b599190611fd2565b1115610ba05760405162461bcd60e51b8152602060048201526016602482015275139bc81b5bdc99481c1bdbdc9cd8da195cc81b19599d60521b604482015260640161074f565b60005b8160ff168160ff16101561061d576040516370a0823160e01b815233600482015260009030906370a082319060240160206040518083038186803b158015610bea57600080fd5b505afa158015610bfe573d6000803e3d6000fd5b505050506040513d601f19601f82011682018060405250810190610c229190611e0a565b905060068110610c645760405162461bcd60e51b815260206004820152600d60248201526c165bdd49dc9948199a5b1b1959609a1b604482015260640161074f565b61038f610c7060085490565b1015610cd2576000610c8160085490565b90506000610c90826001611fd2565b9050610c9c3382610ec1565b6040518181527f07883703ed0e86588a40d76551c92f8a4b329e3bf19765e0e6749473c1a846659060200160405180910390a150505b5080610cdd81612068565b915050610ba3565b6060600180546106309061202d565b61061d3383836111ea565b610d093383610fa8565b610d255760405162461bcd60e51b815260040161074f90611eee565b610d31848484846112b9565b50505050565b6060610d4282610edb565b6000610d4c6112ec565b90506000815111610d6c5760405180602001604052806000815250610d97565b80610d76846112fb565b604051602001610d87929190611e6f565b6040516020818303038152906040525b9392505050565b610da6610e67565b6001600160a01b038116610e0b5760405162461bcd60e51b815260206004820152602660248201527f4f776e61626c653a206e6577206f776e657220697320746865207a65726f206160448201526564647265737360d01b606482015260840161074f565b610e1481611198565b50565b60006001600160e01b031982166380ac58cd60e01b1480610e4857506001600160e01b03198216635b5e139f60e01b145b806105c057506301ffc9a760e01b6001600160e01b03198316146105c0565b600a546001600160a01b03163314610ae45760405162461bcd60e51b815260206004820181905260248201527f4f776e61626c653a2063616c6c6572206973206e6f7420746865206f776e6572604482015260640161074f565b61061d8282604051806020016040528060008152506113a6565b6000818152600260205260409020546001600160a01b0316610e145760405162461bcd60e51b8152602060048201526018602482015277115490cdcc8c4e881a5b9d985b1a59081d1bdad95b88125160421b604482015260640161074f565b600081815260046020526040902080546001600160a01b0319166001600160a01b0384169081179091558190610f6f826109ec565b6001600160a01b03167f8c5be1e5ebec7d5bd14f71427d1e84f3dd0314c0f7b2291e5b200ac8c7c3b92560405160405180910390a45050565b600080610fb4836109ec565b9050806001600160a01b0316846001600160a01b03161480610ffb57506001600160a01b0380821660009081526005602090815260408083209388168352929052205460ff165b8061101f5750836001600160a01b0316611014846106b3565b6001600160a01b0316145b949350505050565b826001600160a01b031661103a826109ec565b6001600160a01b0316146110605760405162461bcd60e51b815260040161074f90611f8d565b6001600160a01b0382166110c25760405162461bcd60e51b8152602060048201526024808201527f4552433732313a207472616e7366657220746f20746865207a65726f206164646044820152637265737360e01b606482015260840161074f565b6110cf83838360016113d9565b826001600160a01b03166110e2826109ec565b6001600160a01b0316146111085760405162461bcd60e51b815260040161074f90611f8d565b600081815260046020908152604080832080546001600160a01b03199081169091556001600160a01b0387811680865260038552838620805460001901905590871680865283862080546001019055868652600290945282852080549092168417909155905184937fddf252ad1be2c89b69c2b068fc378daa952ba7f163c4a11628f55a4df523b3ef91a4505050565b600a80546001600160a01b038381166001600160a01b0319831681179093556040519116919082907f8be0079c531659141344cd1fd0a4f28419497f9722a3daafe3b4186f6b6457e090600090a35050565b816001600160a01b0316836001600160a01b0316141561124c5760405162461bcd60e51b815260206004820152601960248201527f4552433732313a20617070726f766520746f2063616c6c657200000000000000604482015260640161074f565b6001600160a01b03838116600081815260056020908152604080832094871680845294825291829020805460ff191686151590811790915591519182527f17307eab39ab6107e8899845ad3d59bd9653f200f220920489ca2b5937696c31910160405180910390a3505050565b6112c4848484611027565b6112d084848484611519565b610d315760405162461bcd60e51b815260040161074f90611f3b565b6060600c80546106309061202d565b6060600061130883611626565b600101905060008167ffffffffffffffff81111561133657634e487b7160e01b600052604160045260246000fd5b6040519080825280601f01601f191660200182016040528015611360576020820181803683370190505b5090508181016020015b600019016f181899199a1a9b1b9c1cb0b131b232b360811b600a86061a8153600a85049450846113995761139e565b61136a565b509392505050565b6113b083836116fe565b6113bd6000848484611519565b6107f05760405162461bcd60e51b815260040161074f90611f3b565b6113e584848484611897565b60018111156114545760405162461bcd60e51b815260206004820152603560248201527f455243373231456e756d657261626c653a20636f6e7365637574697665207472604482015274185b9cd9995c9cc81b9bdd081cdd5c1c1bdc9d1959605a1b606482015260840161074f565b816001600160a01b0385166114b0576114ab81600880546000838152600960205260408120829055600182018355919091527ff3f7a9fe364faab93b216da50a3214154f22a0a2b415b23a84c8169e8b636ee30155565b6114d3565b836001600160a01b0316856001600160a01b0316146114d3576114d3858261191f565b6001600160a01b0384166114ef576114ea816119bc565b611512565b846001600160a01b0316846001600160a01b031614611512576115128482611a95565b5050505050565b60006001600160a01b0384163b1561161b57604051630a85bd0160e11b81526001600160a01b0385169063150b7a029061155d903390899088908890600401611e9e565b602060405180830381600087803b15801561157757600080fd5b505af19250505080156115a7575060408051601f3d908101601f191682019092526115a491810190611d69565b60015b611601573d8080156115d5576040519150601f19603f3d011682016040523d82523d6000602084013e6115da565b606091505b5080516115f95760405162461bcd60e51b815260040161074f90611f3b565b805181602001fd5b6001600160e01b031916630a85bd0160e11b14905061101f565b506001949350505050565b60008072184f03e93ff9f4daa797ed6e38ed64bf6a1f0160401b83106116655772184f03e93ff9f4daa797ed6e38ed64bf6a1f0160401b830492506040015b6d04ee2d6d415b85acef81000000008310611691576d04ee2d6d415b85acef8100000000830492506020015b662386f26fc1000083106116af57662386f26fc10000830492506010015b6305f5e10083106116c7576305f5e100830492506008015b61271083106116db57612710830492506004015b606483106116ed576064830492506002015b600a83106105c05760010192915050565b6001600160a01b0382166117545760405162461bcd60e51b815260206004820181905260248201527f4552433732313a206d696e7420746f20746865207a65726f2061646472657373604482015260640161074f565b6000818152600260205260409020546001600160a01b0316156117b95760405162461bcd60e51b815260206004820152601c60248201527f4552433732313a20746f6b656e20616c7265616479206d696e74656400000000604482015260640161074f565b6117c76000838360016113d9565b6000818152600260205260409020546001600160a01b03161561182c5760405162461bcd60e51b815260206004820152601c60248201527f4552433732313a20746f6b656e20616c7265616479206d696e74656400000000604482015260640161074f565b6001600160a01b038216600081815260036020908152604080832080546001019055848352600290915280822080546001600160a01b0319168417905551839291907fddf252ad1be2c89b69c2b068fc378daa952ba7f163c4a11628f55a4df523b3ef908290a45050565b6001811115610d31576001600160a01b038416156118dd576001600160a01b038416600090815260036020526040812080548392906118d7908490611fea565b90915550505b6001600160a01b03831615610d31576001600160a01b03831660009081526003602052604081208054839290611914908490611fd2565b909155505050505050565b6000600161192c84610a4c565b6119369190611fea565b600083815260076020526040902054909150808214611989576001600160a01b03841660009081526006602090815260408083208584528252808320548484528184208190558352600790915290208190555b5060009182526007602090815260408084208490556001600160a01b039094168352600681528383209183525290812055565b6008546000906119ce90600190611fea565b60008381526009602052604081205460088054939450909284908110611a0457634e487b7160e01b600052603260045260246000fd5b906000526020600020015490508060088381548110611a3357634e487b7160e01b600052603260045260246000fd5b6000918252602080832090910192909255828152600990915260408082208490558582528120556008805480611a7957634e487b7160e01b600052603160045260246000fd5b6001900381819060005260206000200160009055905550505050565b6000611aa083610a4c565b6001600160a01b039093166000908152600660209081526040808320868452825280832085905593825260079052919091209190915550565b828054611ae59061202d565b90600052602060002090601f016020900481019282611b075760008555611b4d565b82601f10611b205782800160ff19823516178555611b4d565b82800160010185558215611b4d579182015b82811115611b4d578235825591602001919060010190611b32565b50611b59929150611b5d565b5090565b5b80821115611b595760008155600101611b5e565b80356001600160a01b0381168114611b8957600080fd5b919050565b600060208284031215611b9f578081fd5b610d9782611b72565b60008060408385031215611bba578081fd5b611bc383611b72565b9150611bd160208401611b72565b90509250929050565b600080600060608486031215611bee578081fd5b611bf784611b72565b9250611c0560208501611b72565b9150604084013590509250925092565b60008060008060808587031215611c2a578081fd5b611c3385611b72565b9350611c4160208601611b72565b925060408501359150606085013567ffffffffffffffff80821115611c64578283fd5b818701915087601f830112611c77578283fd5b813581811115611c8957611c8961209e565b604051601f8201601f19908116603f01168101908382118183101715611cb157611cb161209e565b816040528281528a6020848701011115611cc9578586fd5b82602086016020830137918201602001949094529598949750929550505050565b60008060408385031215611cfc578182fd5b611d0583611b72565b915060208301358015158114611d19578182fd5b809150509250929050565b60008060408385031215611d36578182fd5b611d3f83611b72565b946020939093013593505050565b600060208284031215611d5e578081fd5b8135610d97816120b4565b600060208284031215611d7a578081fd5b8151610d97816120b4565b60008060208385031215611d97578182fd5b823567ffffffffffffffff80821115611dae578384fd5b818501915085601f830112611dc1578384fd5b813581811115611dcf578485fd5b866020828501011115611de0578485fd5b60209290920196919550909350505050565b600060208284031215611e03578081fd5b5035919050565b600060208284031215611e1b578081fd5b5051919050565b600060208284031215611e33578081fd5b813560ff81168114610d97578182fd5b60008151808452611e5b816020860160208601612001565b601f01601f19169290920160200192915050565b60008351611e81818460208801612001565b835190830190611e95818360208801612001565b01949350505050565b6001600160a01b0385811682528416602082015260408101839052608060608201819052600090611ed190830184611e43565b9695505050505050565b602081526000610d976020830184611e43565b6020808252602d908201527f4552433732313a2063616c6c6572206973206e6f7420746f6b656e206f776e6560408201526c1c881bdc88185c1c1c9bdd9959609a1b606082015260800190565b60208082526032908201527f4552433732313a207472616e7366657220746f206e6f6e20455243373231526560408201527131b2b4bb32b91034b6b83632b6b2b73a32b960711b606082015260800190565b60208082526025908201527f4552433732313a207472616e736665722066726f6d20696e636f72726563742060408201526437bbb732b960d91b606082015260800190565b60008219821115611fe557611fe5612088565b500190565b600082821015611ffc57611ffc612088565b500390565b60005b8381101561201c578181015183820152602001612004565b83811115610d315750506000910152565b600181811c9082168061204157607f821691505b6020821081141561206257634e487b7160e01b600052602260045260246000fd5b50919050565b600060ff821660ff81141561207f5761207f612088565b60010192915050565b634e487b7160e01b600052601160045260246000fd5b634e487b7160e01b600052604160045260246000fd5b6001600160e01b031981168114610e1457600080fdfea26469706673582212205254395775234373f171837539d92463d66062f91bf8762e320b240690136b5464736f6c63430008040033",
  "linkReferences": {},
  "deployedLinkReferences": {}
}